:020000040000FA
:060000000A128A110C280F
:10000800FE00030EF0000A08F1000A128A11982B6C
:100018000A128A110F280A128A1190240A128A11C8
:10002800AA000A128A1191240A128A11AB00A601A9
:10003800A701A801A901F801F901FA01FB0183014F
:100048000A128A112728831603138113880187014E
:100058008312031307108710071187118B170B17CB
:10006800831603130C1483120313901010169016A2
:10007800DC308E000B308F000A128A11E3220A123C
:100088008A1183120313A801A901AA01AB01861DD5
:100098004E284F287028861A522853287028F601AF
:1000A800F60A01300A128A1140230A128A1189308D
:1000B8000A128A111E240A128A11F601F60A02305F
:1000C8000A128A1140230A128A1101300A128A116F
:1000D8001E240A128A11452886197328742895281F
:1000E800861E772878289528F601F60A01300A1224
:1000F8008A1140230A128A11AB300A128A111E246F
:100108000A128A11F601F60A02300A128A114023ED
:100118000A128A1101300A128A111E240A128A113F
:100128004528861D98289928BA28861E9C289D2827
:10013800BA28F601F60A01300A128A1140230A1277
:100148008A1189300A128A111E240A128A11F601AC
:10015800F60A02300A128A1140230A128A11AB30B9
:100168000A128A111E240A128A114528061EBD2861
:10017800BE28D128061DC128C228D128F601F60AB2
:1001880001300A128A1140230A128A1178300A12A1
:100198008A111E240A128A114528F601F60A01302E
:1001A8000A128A1140230A128A1123300A128A116C
:1001B8001E240A128A11F601F60A02300A128A115E
:1001C80040230A128A1183120313861CEC28ED2897
:1001D800FC28061DF028F128FC28061AF428F52822
:1001E800FC2845300A128A111E240A128A112D2968
:1001F800861CFF2800290B290619032904290B2925
:1002080067300A128A111E240A128A112D298618AB
:100218000E290F291E29061D122913291E29061A1F
:10022800162917291E2912300A128A111E240A12A9
:100238008A112D298618212922292D2906192529CF
:1002480026292D2934300A128A111E240A128A11ED
:100258002D2983120313861F32293329AC29101044
:100268000130A6000030A7000A128A1183240A125E
:100278008A11F601F60A01300A128A1140230A127D
:100288008A11CD300A128A111E240A128A11831289
:1002980003138618502951296829F601F60A0230F5
:1002A8000A128A1140230A128A1156300A128A1138
:1002B8001E240A128A116129071483120313061FC8
:1002C80066296729602907101014061D6C296D29F5
:1002D8008C29AA01AB01F601F60A02300A128A112A
:1002E80040230A128A119A300A128A111E240A120D
:1002F8008A11832907150130F8000030F9008312AC
:1003080003132A082B0403198A298B297E2907112C
:10031800F601F60A02300A128A1140230A128A11DB
:10032800BC300A128A111E240A128A119E298714C7
:10033800F801F90183120313280829040319A529D0
:10034800A6299B2987100230F8000030F9004528BB
:0803580045280A128A110C2845
:1004000002308A000408840A820700342034203431
:10041000203420342034203420342034203420343C
:100420002034203420342034203420340034483424
:100430006F347434203477342F3420344D3469349D
:100440006C346B3420342034203420342034003495
:1004500059346F3475347234203463346F346634F5
:100460006634653465343A34203420342034203402
:10047000003448346F347434203477346F342F347C
:1004800020344D3469346C346B34203420342034BF
:100490002034003443346F346C3464342034773483
:1004A0002F3420344D3469346C346B342034203490
:1004B0002034203400345734613472346D3469345C
:1004C0006E3467342034553470342E342E342E3448
:1004D000203420342034003443346F346C3464349A
:1004E000203477346F342F3420344D3469346C34F5
:1004F0006B3420342034203400344E344F342034D4
:100500004D3449344C344B3420344C344534463427
:100510005434213421342034203400344E344F34C8
:1005200020345734413454344534523420344C341C
:10053000453446345434213421342034003450348A
:100540006F347534723469346E34673420344D340A
:1005500069346C346B342E342E342E342034003411
:100560004E344F34203443344F34463446344534CB
:10057000453420344C344534463454342134213409
:10058000003450346F347534723469346E346734E7
:10059000203443346F3466346634653465342E3425
:1005A0002E34003450347234653470346134723413
:1005B00069346E346734203443346F3466346634BF
:1005C00065346534003400300A128A1147240A1257
:1005D0008A111A30F700F830F600F60BED2AF70B07
:1005E000ED2A000003300A128A1169240A128A11C6
:1005F0000730F7007D30F600F60BFC2AF70BFC2ADB
:1006000003300A128A1169240A128A110F30F70086
:100610004730F600F60B0A2BF70B0A2B0F2B033093
:100620000A128A1169240A128A1102300A128A11E6
:1006300069240A128A1102300A128A1169240A12E4
:100640008A1108300A128A1169240A128A110030AC
:100650000A128A1169240A128A110C300A128A11AC
:1006600069240A128A1100300A128A1169240A12B6
:100670008A1106300A128A1169240A128A110800A6
:1006800083120313A2002203031D472B482B6D2B5B
:1006900076087F3EA0002008A5002508A0000430B1
:1006A0000310A00CFF3E031D502B2008A1002108C1
:1006B000A30025080F39A0002008A40023080A126F
:1006C0008A1169240A128A118312031324080A1258
:1006D0008A1169240A128A11972B02302206031DFF
:1006E000722B732B972B7608BF3EA0002008A50025
:1006F0002508A00004300310A00CFF3E031D7B2B37
:100700002008A1002108A30025080F39A000200817
:10071000A40023080A128A1169240A128A1183127A
:10072000031324080A128A1169240A128A11080084
:10073000831203130C1C9D2B9E2BCA2B0C10DC3038
:100740008E000B308F000130FA070318FB0A0030CF
:10075000FB070A307A067B04031DAF2BB02BCA2B94
:1007600078087904031DB52BB62BBC2B87150130F7
:10077000A8000030A900C82B78037904031DC12B01
:10078000C22BC72B0130AA000030AB00C82B871149
:10079000FA01FB018B1CCD2BCE2BE02B8B102603FB
:1007A0002704031DD42BD52BE02B87100711013014
:1007B000A8000030A9000130AA000030AB000710EB
:1007C00071088A00700E8300FE0E7E0E0900F6008E
:1007D00076080F39F3007308F4007608F039F30057
:1007E0007308F5008312031308147508F30004302E
:1007F0000310F30CFF3E031DF82B73080A128A1135
:1008000047240A128A118312031308150D30F300CE
:10081000F30B082C83120313081174080A128A11AF
:1008200047240A128A118312031308150D30F300AE
:10083000F30B182C831203130811080083120313FF
:10084000A200A001A101392C2008220784000A126D
:100850008A1100220A128A110A128A11E7230A1247
:100860008A11013083120313A0070318A10A003074
:10087000A1072008220784000A128A1100220A1206
:100880008A11003A031D452C462C242C0800F20046
:10089000721C4B2C4C2C502C831203130816532C17
:1008A000831203130812F21C562C572C592C88164D
:1008B0005A2C8812721D5D2C5E2C602C0817612C3E
:1008C0000813F21D642C652C672C8817682C88137C
:1008D0000800F50083120313081075080A128A1124
:1008E00047240A128A118312031308150630F400F4
:1008F0003030F300F30B7A2CF40B7A2C00008312C7
:1009000003130811080000300A128A1169240A1220
:100910008A1101300A128A1169240A128A11080008
:04092000013400346A
:02400E00733FFE
:00000001FF
