:020000040000FA
:100000000A128A11FC2F00308A000408840A820731
:100010000034203420342034203420342034203460
:100020002034203420342034203420342034203430
:100030002034003448346F347434203477342F340F
:1000400020344D3469346C346B3420342034203403
:1000500020342034003459346F34753472342034F1
:1000600063346F3466346634653465343A3420342E
:10007000203420342034003448346F347434203435
:1000800077346F342F3420344D3469346C346B340E
:100090002034203420342034003443346F346C3422
:1000A0006434203477342F3420344D3469346C3444
:1000B0006B342034203420342034003457346134FD
:1000C00072346D3469346E3467342034553470348E
:1000D0002E342E342E342034203420340034433453
:1000E0006F346C346434203477346F342F342034DC
:1000F0004D3469346C346B34203420342034003473
:1001000043346F34663466346534653420344434A3
:100110006F346E346534213421342134203420345A
:1001200000344E344F3420344D3449344C344B3445
:1001300020344C3445344634543421342134203472
:10014000203400344E344F34203457344134543446
:100150004534523420344C344534463454342134FC
:1001600021342034003450346F347534723469349F
:100170006E34673420344D3469346C346B342E342F
:100180002E342E34203400344E344F342034433453
:100190004F34463446344534453420344C344534A9
:1001A0004634543421342134003450346F3475349F
:1001B000723469346E346734203443346F346634B7
:1001C0006634653465342E342E3400345034723441
:1001D000653470346134723469346E346734203479
:0E01E00043346F34663466346534653400345D
:100A1C0000300A128A111B250A128A1101300A129F
:100A2C008A111B250A128A110800F3008312031382
:100A3C00081073080A128A1135250A128A118312BA
:100A4C00031308150630F2003030F100F10B2C2D99
:100A5C00F20B2C2D00008312031308110800F00078
:100A6C00701C392D3A2D3E2D831203130816412D7F
:100A7C00831203130812F01C442D452D472D8816A4
:100A8C00482D8812701D4B2D4C2D4E2D08174F2DB7
:100A9C000813F01D522D532D552D8817562D8813E4
:100AAC000800F700F501F6016E2D75087707840034
:100ABC000A128A1103200A128A110A128A117C2541
:100ACC000A128A110130F5070318F60A0030F607EE
:100ADC007508770784000A128A1103200A128A11FA
:100AEC00003A031D7A2D7B2D5B2D0800F400740851
:100AFC000F39F1007108F2007408F039F100710837
:100B0C00F3008312031308147308F100043003106C
:100B1C00F10CFF3E031D8D2D71080A128A1135252B
:100B2C000A128A118312031308150D30F100F10B10
:100B3C009D2D83120313081172080A128A11352590
:100B4C000A128A118312031308150D30F100F10BF0
:100B5C00AD2D8312031308110800F7007703031D52
:100B6C00B82DB92DDC2D74087F3EF5007508FA0000
:100B7C007A08F50004300310F50CFF3E031DC12D5F
:100B8C007508F6007608F8007A080F39F500750834
:100B9C00F90078080A128A111B250A128A117908A1
:100BAC000A128A111B250A128A11042E02307706AA
:100BBC00031DE12DE22D042E7408BF3EF5007508CF
:100BCC00FA007A08F50004300310F50CFF3E031D03
:100BDC00EA2D7508F6007608F8007A080F39F5004A
:100BEC007508F90078080A128A111B250A128A1155
:100BFC0079080A128A111B250A128A110800003082
:100C0C000A128A1135250A128A111A30F500F830A9
:100C1C00F400F40B0F2EF50B0F2E000003300A120C
:100C2C008A111B250A128A110730F5007D30F40059
:100C3C00F40B1E2EF50B1E2E03300A128A111B25E7
:100C4C000A128A110F30F5004730F400F40B2C2EE9
:100C5C00F50B2C2E312E03300A128A111B250A1289
:100C6C008A1102300A128A111B250A128A110230CB
:100C7C000A128A111B250A128A1108300A128A11CB
:100C8C001B250A128A1100300A128A111B250A121E
:100C9C008A110C300A128A111B250A128A11003093
:100CAC000A128A111B250A128A1106300A128A119D
:100CBC001B250A128A110800831603138801870169
:100CCC008312031307108710071187110A128A1158
:100CDC0005260A128A1183120313861D762E772E8F
:100CEC00982E861A7A2E7B2E982EF401F40A013057
:100CFC000A128A11B3250A128A119A300A128A1121
:100D0C0057250A128A11F401F40A02300A128A11C8
:100D1C00B3250A128A1101300A128A1157250A12B8
:100D2C008A11712E86199B2E9C2EBD2E861E9F2EEF
:100D3C00A02EBD2EF401F40A01300A128A11B3253B
:100D4C000A128A11BC300A128A1157250A128A110A
:100D5C00F401F40A02300A128A11B3250A128A111C
:100D6C0001300A128A1157250A128A11712E861D1A
:100D7C00C02EC12EE22E861EC42EC52EE22EF401EC
:100D8C00F40A01300A128A11B3250A128A119A3018
:100D9C000A128A1157250A128A11F401F40A023038
:100DAC000A128A11B3250A128A11BC300A128A114E
:100DBC0057250A128A11712E061EE52EE62EF92EE3
:100DCC00061DE92EEA2EF92EF401F40A01300A125E
:100DDC008A11B3250A128A1189300A128A115725F1
:100DEC000A128A11712EF401F40A01300A128A11C6
:100DFC00B3250A128A1123300A128A1157250A12B6
:100E0C008A11F401F40A02300A128A11B3250A126B
:100E1C008A1183120313861C142F152F242F061DE1
:100E2C00182F192F242F061A1C2F1D2F242F453055
:100E3C000A128A1157250A128A11552F861C272F40
:100E4C00282F332F06192B2F2C2F332F67300A12F4
:100E5C008A1157250A128A11552F8618362F372FCB
:100E6C00462F061D3A2F3B2F462F061A3E2F3F2F9B
:100E7C00462F12300A128A1157250A128A11552F41
:100E8C008618492F4A2F552F06194D2F4E2F552FA7
:100E9C0034300A128A1157250A128A11552F8312DF
:100EAC000313861F5A2F5B2FF82F0A128A110E2557
:100EBC000A128A11F401F40A01300A128A11B325BC
:100ECC000A128A11DE300A128A1157250A128A1167
:100EDC00831203138618732F742F8B2FF401F40ACB
:100EEC0002300A128A11B3250A128A1156300A12DC
:100EFC008A1157250A128A11842F0714831203139F
:100F0C00061F892F8A2F832F0710F401F40A023051
:100F1C000A128A11B3250A128A11CD300A128A11CB
:100F2C0057250A128A118312031387141030FD00FF
:100F3C003930FC000D30FB00FB0BA22FFC0BA22F59
:100F4C00FD0BA22FA92F831203138710061DAF2FA1
:100F5C00B02FD12FF401F40A02300A128A11B325F2
:100F6C000A128A11AB300A128A1157250A128A11F9
:100F7C008312031307151030FD003930FC000D30BF
:100F8C00FB00FB0BC72FFC0BC72FFD0BC72FCE2F66
:100F9C008312031307110A128A110E250A128A11E1
:100FAC00F401F40A01300A128A11B3250A128A11CB
:100FBC0083120313871578300A128A1157250A12E7
:100FCC008A111030FD003930FC000D30FB00FB0B9A
:100FDC00ED2FFC0BED2FFD0BED2FF42F83120313D4
:100FEC008711712E712E0A128A11002883010A12A0
:040FFC008A11622EC6
:02400E00733FFE
:00000001FF
