:020000040000FA
:060000000A128A110E280D
:10000800FE00030EF0000A08F1007F08F2000A1251
:100018008A11E32A0A128A1111280A128A11A424C1
:100028000A128A11AC000A128A11A5240A128A112E
:10003800AD00A001A101A201A301A401A501F9013C
:10004800FA0183010A128A1129286400831603130E
:100058008113880187018312031307108710071182
:1000680087118B170B17831603130C1483120313B2
:10007800901010169016DC308E000B308F000A128C
:100088008A1146230A128A11640083120313A201FB
:10009800A301AC01AD01861D522853287428861A85
:1000A800562857287428F701F70A01300A128A11CE
:1000B800A3230A128A1189300A128A1132240A12D9
:1000C8008A11F701F70A02300A128A11A3230A12C9
:1000D8008A1101300A128A1132240A128A11482818
:1000E8008619772878289928861E7B287C289928BD
:1000F800F701F70A01300A128A11A3230A128A119A
:10010800AB300A128A1132240A128A11F701F70A4F
:1001180002300A128A11A3230A128A1101300A1224
:100128008A1132240A128A114828861D9C289D2883
:10013800BE28861EA028A128BE28F701F70A01308C
:100148000A128A11A3230A128A1189300A128A1103
:1001580032240A128A11F701F70A02300A128A11A8
:10016800A3230A128A11AB300A128A1132240A1206
:100178008A114828061EC128C228D528061DC52868
:10018800C628D528F701F70A01300A128A11A323D5
:100198000A128A1178300A128A1132240A128A1134
:1001A8004828F701F70A01300A128A11A3230A1214
:1001B8008A1123300A128A1132240A128A11F7018D
:1001C800F70A02300A128A11A3230A128A1183122B
:1001D8000313861CF028F1280029061DF428F528A9
:1001E8000029061AF828F928002945300A128A1128
:1001F80032240A128A113129861C032904290F295D
:100208000619072908290F2967300A128A1132248A
:100218000A128A1131298618122913292229061D42
:10022800162917292229061A1A291B2922291230C8
:100238000A128A1132240A128A11312986182529AC
:1002480026293129061929292A29312934300A125F
:100258008A1132240A128A11312983120313861F44
:1002680036293729B92910100130A0000030A10023
:100278000A128A1197240A128A11F701F70A013023
:100288000A128A11A3230A128A11CD300A128A117E
:1002980032240A128A118312031386185429552905
:1002A8006C29F701F70A02300A128A11A3230A12ED
:1002B8008A1156300A128A1132240A128A116529C3
:1002C800071483120313061F6A296B296429071070
:1002D8006400831203131014061D732974299629C8
:1002E800AC01AD01F701F70A02300A128A11A32303
:1002F8000A128A119A300A128A1132240A128A11B1
:100308008A2907150130A4000030A50083120313C1
:100318002C082D0403199129922985296400831238
:1003280003130711F701F70A02300A128A11A323EF
:100338000A128A11BC300A128A1132240A128A114E
:10034800A8298714A401A5018312031322082304F2
:100358000319AF29B029A529640083120313871054
:100368000230A4000030A500482848280A128A1143
:020378000E284D
:1004000002308A000408840A820700342034203431
:10041000203420342034203420342034203420343C
:100420002034203420342034203420340034483424
:100430006F347434203477342F3420344D3469349D
:100440006C346B3420342034203420342034003495
:1004500059346F3475347234203463346F346634F5
:100460006634653465343A34203420342034203402
:10047000003448346F347434203477346F342F347C
:1004800020344D3469346C346B34203420342034BF
:100490002034003443346F346C3464342034773483
:1004A0002F3420344D3469346C346B342034203490
:1004B0002034203400345734613472346D3469345C
:1004C0006E3467342034553470342E342E342E3448
:1004D000203420342034003443346F346C3464349A
:1004E000203477346F342F3420344D3469346C34F5
:1004F0006B3420342034203400344E344F342034D4
:100500004D3449344C344B3420344C344534463427
:100510005434213421342034203400344E344F34C8
:1005200020345734413454344534523420344C341C
:10053000453446345434213421342034003450348A
:100540006F347534723469346E34673420344D340A
:1005500069346C346B342E342E342E342034003411
:100560004E344F34203443344F34463446344534CB
:10057000453420344C344534463454342134213409
:10058000003450346F347534723469346E346734E7
:10059000203443346F3466346634653465342E3425
:1005A0002E34003450347234653470346134723413
:1005B00069346E346734203443346F3466346634BF
:1005C000653465340034831203130C1CE82AE92ACD
:1005D000252B0C10DC308E000B308F007A08803A0F
:1005E000FF0080307F02031DF72A143079020318C0
:1005F000FA2AFB2AFC2A64000130F9070318FA0AD8
:100600000030FA07143079067A04031D082B092BF1
:10061000252B8312031324082504031D102B112BF3
:10062000172B87150130A2000030A300232B2403D1
:100630002504031D1C2B1D2B222B0130AC00003088
:10064000AD00232B8711F901FA018B1C282B292BD4
:100650003D2B8B108312031320032104031D312B28
:10066000322B3D2B871007110130A2000030A30070
:100670000130AC000030AD0007107208FF007108B7
:100680008A00700E8300FE0E7E0E090000300A12F2
:100690008A115B240A128A111A30F800F830F70028
:1006A000F70B502BF80B502B000003300A128A1165
:1006B0007D240A128A110730F8007D30F700F70B0D
:1006C0005F2BF80B5F2B03300A128A117D240A126C
:1006D0008A110F30F8004730F700F70B6D2BF80B3D
:1006E0006D2B722B03300A128A117D240A128A1193
:1006F00002300A128A117D240A128A1102300A126B
:100700008A117D240A128A1108300A128A117D2466
:100710000A128A1100300A128A117D240A128A11E3
:100720000C300A128A117D240A128A1100300A1232
:100730008A117D240A128A1106300A128A117D2438
:100740000A128A11080083120313A8002803031D4C
:10075000AA2BAB2BD02B77087F3EA6002608AB0038
:100760002B08A60004300310A60CFF3E031DB32B7C
:100770002608A7002708A9002B080F39A60026087D
:10078000AA0029080A128A117D240A128A118312EA
:1007900003132A080A128A117D240A128A11FA2BDD
:1007A00002302806031DD52BD62BFA2B7708BF3E27
:1007B000A6002608AB002B08A60004300310A60CE8
:1007C000FF3E031DDE2B2608A7002708A9002B08E3
:1007D0000F39A6002608AA0029080A128A117D24CA
:1007E0000A128A11831203132A080A128A117D241D
:1007F0000A128A110800F70077080F39F40074080C
:10080000F5007708F039F4007408F600831203133A
:1008100008147608F40004300310F40CFF3E031DA6
:100820000C2C74080A128A115B240A128A11831292
:10083000031308150D30F400F40B1C2C8312031362
:10084000081175080A128A115B240A128A11831290
:10085000031308150D30F400F40B2C2C8312031332
:100860000811080083120313A800A601A7014D2C4C
:100870002608280784000A128A1100220A128A1107
:100880000A128A11FB230A128A1101308312031300
:10089000A6070318A70A0030A70726082807840020
:1008A0000A128A1100220A128A11003A031D592CD9
:1008B0005A2C382C0800F300731C5F2C602C642C1D
:1008C000831203130816672C831203130812F31CF8
:1008D0006A2C6B2C6D2C88166E2C8812731D712C53
:1008E000722C742C0817752C0813F31D782C792C96
:1008F0007B2C88177C2C88130800F60083120313C6
:10090000081076080A128A115B240A128A118312CF
:10091000031308150630F5003030F400F40B8E2C6C
:10092000F50B8E2C00008312031308110800003011
:100930000A128A117D240A128A1101300A128A11C0
:0C0940007D240A128A11080001340034E2
:02400E00773FFA
:00000001FF
